{
  "contractName": "CodeFunDo",
  "abi": [
    {
      "constant": true,
      "inputs": [],
      "name": "State",
      "outputs": [
        {
          "name": "",
          "type": "uint8"
        }
      ],
      "payable": false,
      "stateMutability": "view",
      "type": "function"
    },
    {
      "inputs": [],
      "payable": false,
      "stateMutability": "nonpayable",
      "type": "constructor"
    },
    {
      "anonymous": false,
      "inputs": [
        {
          "indexed": false,
          "name": "voterID",
          "type": "uint32"
        }
      ],
      "name": "evoterAdded",
      "type": "event"
    },
    {
      "anonymous": false,
      "inputs": [],
      "name": "evotingstarted",
      "type": "event"
    },
    {
      "anonymous": false,
      "inputs": [
        {
          "indexed": false,
          "name": "voterID",
          "type": "uint32"
        }
      ],
      "name": "evotervoted",
      "type": "event"
    },
    {
      "anonymous": false,
      "inputs": [],
      "name": "evotingended",
      "type": "event"
    },
    {
      "anonymous": false,
      "inputs": [
        {
          "indexed": false,
          "name": "candidateID",
          "type": "uint16"
        },
        {
          "indexed": false,
          "name": "votes",
          "type": "uint32"
        }
      ],
      "name": "eresult",
      "type": "event"
    },
    {
      "constant": true,
      "inputs": [],
      "name": "getCurrentStage",
      "outputs": [
        {
          "name": "",
          "type": "uint8"
        }
      ],
      "payable": false,
      "stateMutability": "view",
      "type": "function"
    },
    {
      "constant": false,
      "inputs": [
        {
          "name": "_voterid",
          "type": "uint32"
        }
      ],
      "name": "addVoter",
      "outputs": [
        {
          "name": "",
          "type": "bool"
        }
      ],
      "payable": false,
      "stateMutability": "nonpayable",
      "type": "function"
    },
    {
      "constant": false,
      "inputs": [],
      "name": "startVoting",
      "outputs": [
        {
          "name": "",
          "type": "bool"
        }
      ],
      "payable": false,
      "stateMutability": "nonpayable",
      "type": "function"
    },
    {
      "constant": false,
      "inputs": [
        {
          "name": "_randomVariable",
          "type": "uint256"
        },
        {
          "name": "_timestamp",
          "type": "uint32"
        },
        {
          "name": "_candidateID",
          "type": "uint16"
        },
        {
          "name": "_voterid",
          "type": "uint32"
        }
      ],
      "name": "vote",
      "outputs": [
        {
          "name": "",
          "type": "uint8"
        }
      ],
      "payable": false,
      "stateMutability": "nonpayable",
      "type": "function"
    },
    {
      "constant": true,
      "inputs": [
        {
          "name": "_voterid",
          "type": "uint32"
        }
      ],
      "name": "hasVotedOrNot",
      "outputs": [
        {
          "name": "",
          "type": "bool"
        }
      ],
      "payable": false,
      "stateMutability": "view",
      "type": "function"
    },
    {
      "constant": false,
      "inputs": [],
      "name": "endVoting",
      "outputs": [
        {
          "name": "",
          "type": "bool"
        }
      ],
      "payable": false,
      "stateMutability": "nonpayable",
      "type": "function"
    },
    {
      "constant": false,
      "inputs": [
        {
          "name": "_candidateID",
          "type": "uint16"
        }
      ],
      "name": "resultOfElection",
      "outputs": [
        {
          "name": "",
          "type": "uint32"
        }
      ],
      "payable": false,
      "stateMutability": "nonpayable",
      "type": "function"
    }
  ],
  "bytecode": "0x608060405234801561001057600080fd5b50336000806101000a81548173ffffffffffffffffffffffffffffffffffffffff021916908373ffffffffffffffffffffffffffffffffffffffff16021790555060008060146101000a81548160ff0219169083600281111561006f57fe5b0217905550610955806100836000396000f3fe608060405234801561001057600080fd5b50600436106100885760003560e01c80639a6f27581161005b5780639a6f2758146101c3578063c3403ddf1461020f578063eedbe31d14610231578063f1b6dccd1461025557610088565b80630d349a221461008d5780631ec6b60a146100d957806348edaf92146100fb57806362e31d461461014d575b600080fd5b6100bf600480360360208110156100a357600080fd5b81019080803563ffffffff169060200190929190505050610281565b604051808215151515815260200191505060405180910390f35b6100e16102b7565b604051808215151515815260200191505060405180910390f35b61012b6004803603602081101561011157600080fd5b81019080803561ffff169060200190929190505050610369565b604051808263ffffffff1663ffffffff16815260200191505060405180910390f35b6101a76004803603608081101561016357600080fd5b8101908080359060200190929190803563ffffffff169060200190929190803561ffff169060200190929190803563ffffffff169060200190929190505050610459565b604051808260ff1660ff16815260200191505060405180910390f35b6101f5600480360360208110156101d957600080fd5b81019080803563ffffffff1690602001909291905050506106a5565b604051808215151515815260200191505060405180910390f35b6102176107bb565b604051808215151515815260200191505060405180910390f35b61023961086d565b604051808260ff1660ff16815260200191505060405180910390f35b61025d610916565b6040518082600281111561026d57fe5b60ff16815260200191505060405180910390f35b6000600260008363ffffffff1663ffffffff16815260200190815260200160002060009054906101000a900460ff169050919050565b60008060009054906101000a900473ffffffffffffffffffffffffffffffffffffffff1673ffffffffffffffffffffffffffffffffffffffff163373ffffffffffffffffffffffffffffffffffffffff161461031257600080fd5b6001600060146101000a81548160ff0219169083600281111561033157fe5b02179055507f3c5b390c6491414e640c6bccb832e8b508fd151854774cb46a79c75db2a3f0d360405160405180910390a16001905090565b600060028081111561037757fe5b600060149054906101000a900460ff16600281111561039257fe5b146103a357633b9ac9ff9050610454565b7ffb53167c15685769e14234fe97ec3463870f1f5c875d302d599b0916fd0c35f08260048461ffff1661271081106103d757fe5b600891828204019190066004029054906101000a900463ffffffff16604051808361ffff1661ffff1681526020018263ffffffff1663ffffffff1681526020019250505060405180910390a160048261ffff16612710811061043557fe5b600891828204019190066004029054906101000a900463ffffffff1690505b919050565b60006001600281111561046857fe5b600060149054906101000a900460ff16600281111561048357fe5b14610491576003905061069d565b60001515600360008463ffffffff1663ffffffff16815260200190815260200160002060009054906101000a900460ff16151514156104d3576001905061069d565b60011515600260008463ffffffff1663ffffffff16815260200190815260200160002060009054906101000a900460ff1615151415610515576002905061069d565b60405180606001604052808563ffffffff1681526020018461ffff1681526020018363ffffffff168152506001600087815260200190815260200160002060008201518160000160006101000a81548163ffffffff021916908363ffffffff16021790555060208201518160000160046101000a81548161ffff021916908361ffff16021790555060408201518160000160066101000a81548163ffffffff021916908363ffffffff1602179055509050506001600260008463ffffffff1663ffffffff16815260200190815260200160002060006101000a81548160ff02191690831515021790555060048361ffff16612710811061061157fe5b6008918282040191900660040281819054906101000a900463ffffffff168092919060010191906101000a81548163ffffffff021916908363ffffffff160217905550507ffa711d1629eb6cfc7e96a23188306c7d3d975339d99597f5eecf5ebe737c80cd82604051808263ffffffff1663ffffffff16815260200191505060405180910390a1600090505b949350505050565b60008060009054906101000a900473ffffffffffffffffffffffffffffffffffffffff1673ffffffffffffffffffffffffffffffffffffffff163373ffffffffffffffffffffffffffffffffffffffff161461070057600080fd5b6000600281111561070d57fe5b600060149054906101000a900460ff16600281111561072857fe5b1461073657600090506107b6565b6001600360008463ffffffff1663ffffffff16815260200190815260200160002060006101000a81548160ff0219169083151502179055507f1def8b14096b6aa96dcc3f9ae5f5eab8809bfc8d669578a3bf2921792294a0fb82604051808263ffffffff1663ffffffff16815260200191505060405180910390a1600190505b919050565b60008060009054906101000a900473ffffffffffffffffffffffffffffffffffffffff1673ffffffffffffffffffffffffffffffffffffffff163373ffffffffffffffffffffffffffffffffffffffff161461081657600080fd5b6002600060146101000a81548160ff0219169083600281111561083557fe5b02179055507f1c2b08dcc53aa7b19eb30d6f9eae9d77468ea4b2ce4c0ee064cad8fe0432858160405160405180910390a16001905090565b600080600281111561087b57fe5b600060149054906101000a900460ff16600281111561089657fe5b14156108a55760009050610913565b600160028111156108b257fe5b600060149054906101000a900460ff1660028111156108cd57fe5b14156108dc5760019050610913565b6002808111156108e857fe5b600060149054906101000a900460ff16600281111561090357fe5b14156109125760029050610913565b5b90565b600060149054906101000a900460ff168156fea165627a7a72305820e75437ec2f184b917643720846a5837c1c2fd14d3dc71bd447d740be1146c3360029",
  "source": "pragma solidity >=0.4.21 <0.6.0;\n\n// This contract will be the backend smart contract for the voting system, to interact with our blockchain\ncontract CodeFunDo{\n\naddress admin;\n\n//State Declaration\nenum StateType { PreVoting, Voting, PostVoting} //Too store what stage of the election is currently going on\nStateType public  State;\n\n//Only Admin modifier\nmodifier onlyAdmin() {\n    require (msg.sender==admin);\n    _;\n  }\n\n  //structure to store votes's details\nstruct voteDetails{\n    uint32 timestamp;\n    uint16 candidateID;\n    uint32 voterid;\n  }\n\n  //Mappings\n  mapping (uint256=>voteDetails) voteList; // mapping of the randomly generated variable to all the voters \n  mapping (uint32=>bool) voted; //mapping from voterID to if that person has already voted or not\n  mapping (uint32=>bool) isValidVoter; //mapping from voterID to if that person is a valid voter in that election\n  \n  //2D Array to store votes\n  uint32[10000] voteCounter; //Assuming 10000 total candidates contest in that year's election\n  \n  //Events\n  event evoterAdded(uint32 voterID);\n  event evotingstarted();\n  event evotervoted(uint32 voterID);\n  event evotingended();\n  event eresult(uint16 candidateID,uint32 votes);\n  \n  \n  //constructor\n  constructor() public {\n    //initialise admin credentials\n    admin=msg.sender;\n    State=StateType.PreVoting;//Making the state of the voting the pre-voting state\n  }\n  \n  function getCurrentStage() public view returns (uint8){\n      if(State==StateType.PreVoting)\n    {\n        return 0; // Current Stage of voting is pre-voting\n    }\n    if(State==StateType.Voting)\n    {\n        return 1; // Current Stage of voting is voting\n    }\n    if(State==StateType.PostVoting)\n    {\n        return 2; // Current Stage of voting is post-voting\n    }\n  }\n  \n  function addVoter(uint32 _voterid) onlyAdmin public returns (bool){ // Add a voter to the eligible voters list\n    if(State!=StateType.PreVoting)\n    {\n        return false;// Cannot add new voters unless it is pre voting season\n    }\n      isValidVoter[_voterid]=true;\n      emit evoterAdded(_voterid);\n      return true;\n  }\n  \n  function startVoting() onlyAdmin public returns (bool){ //Function to indicate the start of voting season\n      State=StateType.Voting;\n      emit evotingstarted();\n      return true;\n  }\n  \n  function vote (uint256 _randomVariable,uint32 _timestamp,uint16 _candidateID,uint32 _voterid) public returns (uint8){ //Actually vote\n      if(State!=StateType.Voting)\n        {\n            return 3;//code for if voting season has not begun\n        }\n      if(isValidVoter[_voterid]==false)\n      {\n          return 1;//code for voter is not a valid voter or is not registered to vote in this election\n      }\n      if(voted[_voterid]==true)\n      {\n          return 2;//code for voter has already voted\n      }\n      voteList[_randomVariable]=voteDetails(_timestamp,_candidateID,_voterid);\n      voted[_voterid]=true;\n      voteCounter[_candidateID]++;\n      emit evotervoted(_voterid);\n      return 0;//code for successful vote\n  }\n  \n  function hasVotedOrNot(uint32 _voterid) public view returns (bool){\n      return voted[_voterid];\n  }\n  \n  function endVoting() onlyAdmin public returns (bool){ //Function to indicate the end of voting season\n      State=StateType.PostVoting;\n      emit evotingended();\n      return true;\n  }\n  \n  function resultOfElection(uint16 _candidateID) public returns (uint32){ //Can be called only after the elections are over by the admin\n  if(State!=StateType.PostVoting)\n        {\n            return 999999999;//code for if voting season has not ended\n        }\n        emit eresult(_candidateID,voteCounter[_candidateID]);\n      return voteCounter[_candidateID];\n  }\n  \n}",
  "sourcePath": "/Users/dev/Desktop/tempblockchain/contracts/CodeFunDo.sol",
  "compiler": {
    "name": "solc",
    "version": "0.5.8+commit.23d335f2.Emscripten.clang"
  },
  "schemaVersion": "3.0.12",
  "updatedAt": "2019-08-21T12:57:16.802Z",
  "devdoc": {
    "methods": {}
  },
  "userdoc": {
    "methods": {}
  }
}